:0911A600C2A0C2B6C2B7D2A12258
:0911AF00D2B6D2A0C2B6C2A02241
:0611B8006572726F720007
:0310A2000110003A
:100F7000E4F571757231F571E572643D6026120E0B
:100F8000FE8F72E572B420057510018017AF7212E2
:100F9000114E74122571F8A6720571C3E571648053
:100FA000948F40D4E572643D601EE510701A120EF5
:100FB000FE8F72E572B4200475100122E572B43D13
:080FC000E37F3D12114E80DCBD
:010FC8002206
:101131007F01121191E4FFFE0FBF00010EBE01F805
:03114100BF2CF5CB
:011144002288
:0C1185001211317BFF7A1179B80210CFF3
:060A29008B428A43894460
:100A2F00AB45AA46A947120800F549E4F54DF54C28
:100A3F00F54BF54A74122549F8E6FF643D600EEF59
:100A4F00642B6009EF642F6004EFB42A037F002248
:100A5F00E6642D6003020B0D74132549F8E6FF645D
:100A6F002B600EEF642A6009EF642D6004EFB42F42
:100A7F00037F0022054974122549F8E6FFD3943904
:100A8F00506EEFC394304068E548701C74132549CD
:100A9F00F8E6FF642B600EEF642A6009EF642D60A7
:100AAF0004EFB42F037F0022E47F0AFEFDFCAB4D61
:100ABF00AA4CA94BA84A120858C004A905AA06AB0C
:100ACF0007AF49054974122FF8E6FF3395E0FEEFA3
:100ADF0024D0FFEE34FFFE3395E0FDFCD000EB2F6A
:100AEF00F54DEA3EF54CE93DF54BE83CF54A80867D
:100AFF00AF4DAE4CAD4BAC4A1208A7020BA6741209
:100B0F002549F8E6FFD394394003020BB1EFC394A4
:100B1F00305003020BB174122549F8E6FFD3943914
:100B2F00506DEFC394304067E548701C741325492E
:100B3F00F8E6FF642B600EEF642A6009EF642D6006
:100B4F0004EFB42F037F0022E47F0AFEFDFCAB4DC0
:100B5F00AA4CA94BA84A120858C004A905AA06AB6B
:100B6F000774122549F8E6FF3395E0FEEF24D0FF16
:100B7F00EE34FFFE3395E0FDFCD000EB2FF54DEA90
:100B8F003EF54CE93DF54BE83CF54A05498087AF0A
:100B9F004DAE4CAD4BAC4AAB42AA43A9441208E947
:100BAF0080037F0022AB45AA46A947E549120846B4
:020BBF007F01B4
:010BC1002211
:10101400E4F573F545754600754773754801FB7A29
:10102400007908120A29EF6028AF73057374122F30
:10103400F8E6F511643D601F754500754600754777
:1010440073E4F548FB7A00790C120A29EF700880E2
:09105400001211857F00227F01CA
:01105D002270
:100D5C00E4F55BAB0FAA0EA90DA80CAF0BAE0AAD58
:100D6C0009AC0812105EAC00AD01AE02AF038F5F90
:100D7C008E5E8D5D8C5CE47B0AFAF9F81208588F54
:100D8C005F8E5E8D5D8C5C7F2E12114EE4F55BAF39
:100D9C005FAE5EAD5DAC5CEC4D4E4F6054AB0FAADC
:100DAC000EA90DA80C12105E8E598F5AEF2430FF2D
:100DBC0012114EE55A4559AF5FAE5EAD5DAC5C703D
:100DCC000A7B0AFAF9F81208588013AB0FAA0EA97D
:100DDC000DA80C12105EAC00AD01AE02AF038F5F1C
:100DEC008E5E8D5D8C5C055BC3E55B648094874097
:010DFC009E58
:010DFD0022D3
:100BC2008B6E8A6F8970EF24D6603D14605424FEC8
:100BD200601A24FE607A24F26003020CA37FC01222
:100BE2001191AF0BAE0AAD09AC08804F7FC0121154
:100BF20091C3E50B950FFFE50A950EFEE509950DEC
:100C0200FDE508950CFC80337FC0121191AF0FAE49
:100C12000EAD0DAC0CAB0BAA0AA909A80812085814
:100C220080197FC0121191E50B250FFFE50A350EE1
:100C3200FEE509350DFDE508350CFCAB6EAA6FA982
:100C4200701208E9AB6EAA6FA9701208C9020E8A67
:100C52007FC0121191AB0FAA0EA90DA80CAF0BAE5B
:100C62000AAD09AC0812105EAB6EAA6FA970120829
:100C7200E9AB6EAA6FA9701208C9120E8AAB0FAA4D
:100C82000EA90DA80CAF0BAE0AAD09AC0812105E8E
:100C9200AC00AD01AE02AF03EC4D4E4F6003120D3E
:020CA2005C22D2
:1010F30073657269616C20726573756C740020206E
:1011030020202020202020202020202020202000FC
:1010A5000122000F230000000000000000000000E6
:0410B5000000000037
:101113007F05E4F522EF646260133098FDC298AF57
:0D11230099AE22052274232EF8A60780E85D
:01113000229C
:0E115900E4FFFE0FBF00010EBE01F8BFF4F56B
:011167002265
:100CA40012119C7BFF7A1079F31210CF758920758D
:100CB4008DFDD28E7598501211137FC01211917B45
:100CC400FF7A1179011210CF7FC01211911522E41D
:100CD400F560AF22EF3395E0FEC3E5609FEE6480DC
:100CE400F8748098501274232560F8E6B42E0575C4
:100CF40061018004056080DAE561603AE56014F51D
:100D040062C3E56264809480400E74232562F8E631
:100D1400FF12114E156280E9856062C3E52264808A
:100D2400F8E562648098502A74232562F8E6FF127D
:100D3400114E056280E5E52214F562C3E562648024
:100D44009480400E74232562F8E6FF12114E15625A
:080D540080E9E4F561020CBB2B
:1010B90010323738392F3435362A3132332D203032
:0210C9003D2BBD
:0D1177007FC47E09EF1F70011EEF4E70F760
:011184002248
:100EFE00E4FB7590FFE590B4FFFBEB7046FCC3EC92
:100F0E006480948450F4EB70F1C374079CFFF87402
:100F1E0001088002C333D8FCF45290E590540FFDC3
:100F2E00640F6019121177E590540FFD640F600D78
:100F3E00E590540FFFBF0FF81211777B010C7590DF
:100F4E00FF80BBE4FBA803ED088003A2E713D8FBE8
:100F5E0030E0030B80EFEC25E025E0242E2BF8E6A5
:010F6E00FF83
:010F6F00225F
:0310CB00014E00D3
:0E116800E4FFFE0FBF00010EEF640A4E70F5AB
:011176002256
:0B1191008F80C2A1D2A0C2A002116892
:09114500154E744F254EF8E6FF2B
:0B114E008F80D2A1D2A0C2A0021168C5
:0A119C007F0E1211917F38021191AD
:0610CF008B638A64896551
:1010D500E4FDAB63AA64A965EDFF3395E08F82F566
:0D10E50083120819FF600612114E0D80E500
:0110F20022DB
:100E8A008F698E688D678C66EC4D4E4F70057F308A
:100E9A0002114EAF69AE68AD67AC66781F1208B52D
:100EAA00EF5401FFE4FEFDFCEF602F7F2D12114E7F
:100EBA00AF69AE68AD67AC6674FFFBFAF9F8120861
:100ECA00588F698E688D678C66120FC9D3E54E6498
:100EDA00809480401E12114580F2AF69AE68AD67FA
:100EEA00AC66120FC9D3E54E648094804005121196
:040EFA004580F2221B
:100FC9008F6D8E6C8D6B8C6AE4F54EAF6DAE6CAD2A
:100FD9006BAC6AEC4D4E4F6031E47B0AFAF9F812BA
:100FE900105EEB2430FF744F254EF8A607AF6DAEA7
:100FF9006CAD6BAC6AE47B0AFAF9F812105E8F6D7E
:0B1009008E6C8D6B8C6A054E80C1223E
:0211BE00C3224A
:03000000020DFEF0
:0C0DFE00787FE4F6D8FD758173020E4585
:10080000BB010689828A83E0225002E722BBFE02F6
:09081000E32289828A83E4932229
:10081900BB010CE58229F582E5833AF583E0225094
:1008290006E92582F8E622BBFE06E92582F8E222DE
:0D083900E58229F582E5833AF583E49322F8
:10084600BB010689828A83F0225002F722BBFE0191
:02085600F3228B
:10085800E88FF0A4CC8BF0A42CFCE98EF0A42CFC3F
:100868008AF0EDA42CFCEA8EF0A4CDA8F08BF0A4BD
:100878002DCC3825F0FDE98FF0A42CCD35F0FCEB1C
:100888008EF0A4FEA9F0EB8FF0A4CFC5F02ECD39E1
:0F089800FEE43CFCEAA42DCE35F0FDE43CFC224E
:10105E00C2D5E830E70FB2D5E4C39BFBE49AFAE4BD
:10106E0099F9E498F8EC30E717B2D51210941209FA
:10107E003FE4C39BFBE49AFAE499F9E498F8800301
:10108E0012093F30D50DE4C39FFFE49EFEE49DFDA3
:04109E00E49CFC22B0
:0E08A700C3E49FFFE49EFEE49DFDE49CFC2262
:1008B500E86010ECA2E713FCED13FDEE13FEEF1359
:0408C500FFD8F02246
:1008C900BB010789828A830209DD5005E9F802091B
:1008D900D1BBFE05E9F80209E989828A830209F593
:1008E900BB010789828A83020A115005E9F8020AC5
:0A08F90005BBFE05E9F8020A1D2206
:100E0A00020CA4E493A3F8E493A34003F68001F24E
:100E1A0008DFF48029E493A3F85407240CC8C333E9
:100E2A00C4540F4420C8834004F456800146F6DFB8
:100E3A00E4800B01020408102040809010A2E47E96
:100E4A00019360BCA3FF543F30E509541FFEE493AD
:100E5A00A360010ECF54C025E060A840B8E493A374
:100E6A00FAE493A3F8E493A3C8C582C8CAC583CA9F
:100E7A00F0A3C8C582C8CAC583CADFE9DEE780BE57
:0110CE000021
:1009030075F008758200EF2FFFEE33FECD33CDCCAB
:1009130033CCC58233C5829BED9AEC99E58298402E
:100923000CF582EE9BFEED9AFDEC99FC0FD5F0D60B
:10093300E4CEFBE4CDFAE4CCF9A88222B800C1B935
:100943000059BA002DEC8BF084CFCECDFCE5F0CB73
:10095300F97818EF2FFFEE33FEED33FDEC33FCEBAC
:1009630033FB10D703994004EB99FB0FD8E5E4F967
:10097300FA227818EF2FFFEE33FEED33FDEC33FC54
:10098300C933C910D7059BE99A4007EC9BFCE99A48
:10099300F90FD8E0E4C9FAE4CCFB2275F010EF2F8D
:1009A300FFEE33FEED33FDCC33CCC833C810D7078D
:1009B3009BEC9AE899400AED9BFDEC9AFCE899F8C8
:0E09C3000FD5F0DAE4CDFBE4CCFAE4C8F9225B
:0C09D100E6FC08E6FD08E6FE08E6FF2252
:0C09DD00E0FCA3E0FDA3E0FEA3E0FF228D
:0C09E900E2FC08E2FD08E2FE08E2FF224A
:1009F500E493FC740193FD740293FE740393FF2248
:0C0A0500ECF608EDF608EEF608EFF6221D
:0C0A1100ECF0A3EDF0A3EEF0A3EFF02258
:0C0A1D00ECF208EDF208EEF208EFF22215
:00000001FF
